:020000040800F2
:1000000058040020C9000008B9030008B70300081D
:1000100000000000000000000000000000000000E0
:100020000000000000000000000000002F06000893
:100030000000000000000000BB030008D906000813
:10004000F90000080000000065050008F90000083C
:10005000F900000881020008F90000088302000886
:1000600000000000F9000008F9000008F90000088D
:10007000F9000008F9000008F9000008000000007D
:10008000F90000080000000000000000F90000086E
:10009000F9000008F9000008F9000008F90000085C
:1000A000F9000008F9000008F90000083D07000801
:1000B000F90000080348854600F078F8004800473A
:1000C00009110008580400200C4880F308880C48E7
:1000D0000168090E0B4A914205D10B480B4901609A
:1000E0000B480C4901600C4880470C480047FEE76C
:1000F000FEE7FEE7FEE7FEE7FEE70000580400200B
:10010000040000001F000000181002400100000061
:100110000000014000000000DD060008B5000008F6
:1001200030B50B46014600202022012409E00D468F
:10013000D5409D4205D31D469540491B2546954017
:1001400040191546521E002DF1DC30BDF0B51FB42C
:100150000646002082B005464024019100901BE035
:10016000019922460F46304600F042F8049A059B5A
:10017000801A994110D310461946224600F028F8FB
:10018000361A8F410197224601200021009F00F07E
:100190001FF838184D4100902046641E0028DFDC0F
:1001A000019B00982946324607B0F0BD064C012558
:1001B000064E05E0E36807CC2B430C3C984710340F
:1001C000B442F7D3FFF77AFFB0110008D01100084E
:1001D00010B5202A04DB0146203A9140002010BDD2
:1001E000914020239C1A0346E3401943904010BDE0
:1001F00010B5202A04DB0846203AD040002110BD6B
:100200000B46D340D0402024A21A914008431946FF
:1002100010BD70B516460D46044600F0D7F900280B
:1002200001D0012070BDCC2000F080FBF02000F058
:100230007DFB204600F07AFB002000F077FB0024D5
:1002400004E000F091F93055641CE4B2AC42F8D3FC
:1002500000F0BCF9002070BD70B5054600F0B6F99D
:100260000028FBD1332000F061FB002400F07CF972
:100270002870641CE4B26D1C082CF7D3002070BDFC
:10028000704770471CB50121480400F097F88020A2
:10029000009003216846417101210171817109209B
:1002A0006946C00600F014F81CBD1CB501214804C5
:1002B00000F084F8802000900321684641710121FC
:1002C0000171817109206946C00600F001F81CBD6A
:1002D000F0B50022012423460D6893401D409D4245
:1002E0002AD10D79012D01D0022D12D18768550038
:1002F0000326AE40B74387604E79AE4085682E43F3
:10030000866085889D43858085888B7993401D43D1
:100310008580066855000323AB409E4306600E7936
:100320000768AE403E430660C6689E43C660CB7910
:10033000AB40C5682B43C360521C102ACBD3F0BD21
:10034000F0B50022012633460C6893401C409C42C5
:1003500012D1036855000324AC40A34303600B791A
:100360000768AB403B430360C368A343C360CB79DA
:10037000C468AB402343C360521C102AE3D3F0BDD2
:100380004B07DB0E9A40C90810B589000818016AAE
:100390000F249C40A1430162016A1143016210BD18
:1003A0000246128A00200A4200D0012070470185CF
:1003B000704781617047FEE770477047044A002923
:1003C000516901D0014300E0814351617047000051
:1003D00000100240044A0029916901D0014300E065
:1003E000814391617047000000100240F8B5564DFE
:1003F0000446686800210C22544E104005D00428A1
:1004000003D0082803D00C281AD026601AE06968A7
:10041000686803228902D2030F0F1040BF1C002816
:100420000AD0E86A0107090F3046491CFFF778FE39
:1004300078430146216005E0454839464143F9E7E4
:10044000444820606868444F0006000F3B5C206809
:100450000246DA4062606B685B055B0FFB5CDA406A
:10046000A2602B6BDB0501D43C4B05E06B685B04A1
:1004700001D4530800E09308E3602B6B5F06384B10
:1004800003D4374F1237276100E023612F6BFF063B
:1004900001D4666100E060612F6BBF070ED02F6B47
:1004A000BF07BF0F012F0BD02F6BBF07BF0F022F4E
:1004B00008D02F6BFF43BF0706D006E0A26104E01F
:1004C000A06102E0A36100E0A6612F6BBF03BF0F34
:1004D0000FD02F6BBF03BF0F012F0CD02F6BBF03AB
:1004E000BF0F022F09D02F6BBF03BF0F032F06D002
:1004F00006E0E26104E0E06102E0E36100E0E66161
:100500002F6B3F03BF0F0FD02A6B1203920F012AEC
:100510000CD0286B0003800F022809D0286B000341
:10052000800F032806D006E0226204E0206202E089
:10053000236200E02662286B000602D40548606250
:10054000F8BD6162F8BD00000010024000127A00A0
:1005500000093D00006CDC0218000020809FD500DF
:100560000080000070470000F8B500240926164FEF
:100570002546F6066410FFF785FE80213046FFF71A
:1005800018FF80213046FFF712FF012000F06EFCBB
:1005900080213046FFF70DFF31680320800381433F
:1005A000316080213046FFF7FBFE7870022000F0BA
:1005B0005DFC7878002801D0802004436D1C082D54
:1005C000D8DBE0B2F8BD0000140000207CB5322575
:1005D000FFF758FE0924E40680212046FFF7E9FED4
:1005E00080212046FFF7E3FE3C2000F03FFC802105
:1005F0002046FFF7DEFE802000900020694608714B
:10060000C8712046FFF79CFE05E080212046FFF7D9
:10061000C7FE002806D028466D1EEDB20028F4D192
:1006200001207CBD022000F021FC00207CBD704731
:100630003CB5002220480192009201680123194331
:10064000016002210524240305680D400095019DE9
:100650006D1C0195009D002D02D1019DA542F3D195
:100660000468A40726D50093144B11221A6042682F
:1006700042604268426042687F23DB039A434260E3
:1006800042680523DB041A434260026801231B060B
:100690001A43026002689201FCD5426892089200F7
:1006A000426042680A43426041680907890F022993
:1006B000FAD13CBD00923CBD001002400020024037
:1006C000042204490428086902D090430861704755
:1006D0001043FBE700E000E07047000010B514484D
:1006E00001680122114301604168124A11404160D2
:1006F0000168114A1140016001680122920491438E
:10070000016041683F22120491434160C16A0909B6
:100710000901C162016BFF22543291430163416BB5
:1007200049084900416300218160FFF781FF10BD46
:10073000001002400CB8FFF8FFFFF6FE10B50249AA
:10074000024800F052F810BD0501050000380140D4
:1007500030B5012189B04804FFF730FE012188033C
:10076000FFF738FE0921CD0601222846FFF708FED3
:1007700001220A212846FFF703FE032040020690CB
:100780000220694608770320487700248C770120EF
:10079000C87706A92846FFF79BFDE1200594400293
:1007A00001940294039400900C20064C0490694636
:1007B000204600F037F80121204600F005F809B086
:1007C00030BD0000003801400029016802D001223C
:1007D000114301E049084900016070470246D269AF
:1007E00000200A4200D00120704730B50A04130EE1
:1007F0000122144600258C40012B0ED0022B0ED076
:100800008368090C2340C0698A401040002B02D045
:10081000002800D00125284630BD0368F1E7436871
:10082000EFE7000030B5044600688BB00D46400885
:10083000400020606068032109038843A9680143E0
:10084000616020681C49EA680840696811432A69A8
:10085000024311432160A0680321090288436969AA
:100860000143A1606846FFF7C1FD1448844201D1ED
:1008700006980AE01248844201D1079805E0114821
:10088000844201D1089800E002982168090429688F
:1008900000D54000FFF744FC2A6852088A4200D87D
:1008A000401C2168090404D50107074A490F10407C
:1008B0000843A0810BB030BDF3E9FFFF00380140D1
:1008C0000044004000480040F0FF0000C905C90D89
:1008D0000185704710B50924E40680212046FFF702
:1008E00068FD80212046FFF762FD0C2000F0BEFA73
:1008F00080212046FFF75DFD092000F0B7FA10BD0A
:1009000010B50924E40680212046FFF752FD80211E
:100910002046FFF74CFD012000F0A8FA8021204678
:10092000FFF747FD142000F0A1FA10BD70B5044692
:10093000FFF7A8FC0025E00702D0FFF7E1FF01E088
:10094000FFF7C8FF6D1C6408EDB2082DF3D370BD2E
:100950000FB410B503A9044B044A029800F018F82C
:1009600010BC08BC04B01847E5100008280000209F
:1009700002E008C8121F08C1002AFAD17047704768
:10098000002001E001C1121F002AFBD170470000C6
:10099000FFB591B00F460546002606E025280AD08F
:1009A000149A139990476D1C761C28780028F5D16D
:1009B000304615B0F0BD002400940121F34A0294A2
:1009C00000E004436D1C2B780846203B9840104201
:1009D000F7D128782A280ED0022128780246303A0A
:1009E000092A15D8009A0A235A43303A80180C4332
:1009F0006D1C0090F1E701CF0090002805DA01207E
:100A000040030443009840420090022004436D1CC0
:100A100028782E2815D10420044368786D1C2A28D4
:100A20000AD101CF6D1C02900BE002990A225143BA
:100A3000303940186D1C0290287801463039092958
:100A4000F3D928786C2810D006DC4C281AD06828F6
:100A50000ED06A2817D104E0742813D07A2812D156
:100A600010E00120400504430CE00121090501E0EC
:100A7000032109050C436978814203D10120000557
:100A800024186D1C6D1C287803906E281ED00CDC79
:100A9000632831D004DC00288AD0582811D1B2E074
:100AA00064287BD069280CD178E073282DD004DC31
:100AB0006F2870D0702804D1A7E075286CD07828F2
:100AC0006BD0149A13999047761C62E06002400F35
:100AD000022807D003280AD0042838680AD0066004
:100AE0003F1D56E03868F11706604160F8E7386846
:100AF0000680F5E70670F3E7387869460874002049
:100B0000487404A80390012003E038680390002093
:100B1000C0433F1D61070FD5002101E00199491C29
:100B2000029A0191914213DA8142F7DB019A03990B
:100B3000895C0029F2D10BE0002101E00199491CF8
:100B400001918142FADB019A0399895C0029F5D170
:100B500001990098139A401A00902146149B00F0C6
:100B60003BF901998019461807E00398039900782A
:100B7000491C0391149A139990470198401E0190C3
:100B8000401CF2D12146149B139A009800F014F9EE
:100B900086196D1C09E741E033E034E00A200021AA
:100BA000049005916002410F022905D001CFC217C0
:100BB0009446032905D007E0FF1DFF08FF0003CF7F
:100BC00006E000B2C2179446042902D140B2C11710
:100BD0008C4600226146944506DA0A4600214042CE
:100BE00091418C462D2102E0210504D52B216A4636
:100BF0001176012103E0E10701D02021F7E70191FF
:100C000054E00A200BE0102009E01020049000219D
:100C10000420044308200591029003E008200021ED
:100C2000059104906002410F022905D001CF0022F6
:100C30009446032906D006E0FF1DFF08FF0003CFFE
:100C40008C4603E080B2042900D1C0B2002101919A
:100C500021072BD50399702906D0049A1021059BF2
:100C60004A401A4305D00EE040216A461176012120
:100C700008E06146014306D030216A4611760399A7
:100C8000517602210191049A0821059B4A401A439A
:100C90000CD16146014301D1610707D530216A4675
:100CA0001176012101910299491E02910399582957
:100CB00004D037A103910FA90F910DE039A1F9E7F5
:100CC0006146059B049AFFF741FA039B8C469B5CA7
:100CD0000F9A521E0F92137061460143F0D10F9884
:100CE00007A9081A20300390600704D501200004EA
:100CF0008443029801E0012002900399884201DDBB
:100D0000401A00E00020411802900198091800984C
:100D1000401A0090E00306D42146149B139A0098D1
:100D200000F05AF886190020049008E006A9085C33
:100D3000149A139990470498401C761C04900199CA
:100D40008842F3DBE0030CD52146149B139A0098EC
:100D500000F042F8861904E0149A30201399904765
:100D6000761C0299481E02900029F5DC08E00F98D5
:100D70000F990078491C0F91149A13999047761C8B
:100D80000399481E03900029F1DCFBE609280100C5
:100D900030313233343536373839616263646566F1
:100DA00000000000303132333435363738394142B3
:100DB0004344454600000000F8B5044600251E46A1
:100DC0001746880404D405E039462020B0476D1C3E
:100DD000641EF9D52846F8BDFFB50446002581B04C
:100DE0001E46C80301D5302700E02027880404D51B
:100DF00005E038460399B0476D1C641EF9D52846B6
:100E000005B0F0BD10B50420C043FFF759FC0748FA
:100E100005490068FFF784F9054940B27D22087052
:100E2000D2005043488010BD00127A00000000201C
:100E3000140000200B4902228A5E0B49504348618E
:100E400000228A6108690123184308610869C30701
:100E500001D0C003FAD508694008400008618A61E2
:100E6000704700001400002000E000E00B49002261
:100E70008A560B495043486100228A610869012360
:100E8000184308610869C30701D0C003FAD508698F
:100E90004008400008618A6170470000140000208B
:100EA00000E000E0F7B5054600208EB0059004464E
:100EB0000646069068061746410FE819029040065C
:100EC000420F072A00D10622501AC0B20A9066A02B
:100ED000FFF73EFD3A4669A00A99FFF739FDE8079A
:100EE000C00F049028467840C007C00F0246039008
:100EF00067A00499FFF72CFD039800280DD00298F5
:100F000006AAC0B201320121FFF783F90F986946A2
:100F1000C0192038C07F08767F1C049800280BD0A9
:100F20006D1EE8B205AA0121FFF773F90F98694613
:100F300000784875EDB27F1C00208CE02819C0B203
:100F40000090381B102814DD009800070FD000987F
:100F500010210007000F081A40080146029050A017
:100F6000FFF7F6FCFFF732FB00287AD104E00820F7
:100F7000F3E70007400FF0E7CC20FFF7D7FC552040
:100F8000FFF7D4FC0098FFF7D1FCFF20FFF7CEFC61
:100F9000002057E0049800280ED06846007DFFF737
:100FA000C5FC6846407DFFF7C1FCA41C761C0020F0
:100FB000E4B2F6B2049021E00398002811D0381B67
:100FC00002280EDC6846007EFFF7B0FC6846407ED3
:100FD000FFF7ACFCA41C761C0020E4B2F6B2039030
:100FE0000CE00F98805DFFF7A1FC0F988019407806
:100FF000FFF79CFCA41CB61CE4B2F6B2FFF7B4FAEF
:101000000190FFF7B1FA019B02460090194627A014
:10101000FFF79EFCFF20FFF789FC1020FFF70AFF77
:10102000FFF7A2FA0146019027A0FFF791FC019873
:10103000AA2804D0FFF7CAFA002011B0F0BD079823
:10104000401CC0B2079002998842A3D3FFF7BEFAB2
:101050000898401CC0B20A990890884201D86DE7F0
:10106000FFE70120E9E7000073706167653D2564D3
:101070002C65706167653D25640A00006E706167CC
:10108000653D25642C6C656E6774683D25640A00B7
:1010900073663D25642C65663D25640A00000000EA
:1010A0006E7365673D25640A000000005265616447
:1010B0006261636B3A202530327820253032782007
:1010C0002825632563290A0056657269666963618C
:1010D00074696F6E20627974653A20253032780A1F
:1010E0000000000070B5074D0446C1B22846FFF766
:1010F000EDFB40212846FFF771FB0028F9D0204680
:1011000070BD000000380140FFF722FBFFF77AFEB8
:10111000FFF7CBF81948FFF79FF8184F0024562621
:10112000164D14372A5D214615A0FFF711FC3E55D8
:10113000641C082CF6DB6420FFF77CFE0F490822B4
:1011400014312020FFF7AEFE00267D27FF000B4A5A
:1011500008212020FFF75DF801460DA0FFF7F8FBFE
:1011600000242A5D21460EA0FFF7F2FB2E55641CD9
:10117000082CF6DB3846FFF75DFEE8E72C00002080
:1011800049445B25645D3D202564200A0000000081
:1011900077725F74656D703D202578200A0000002D
:1011A00049445B25645D3D2030782578200A0000A5
:1011B000D0110008000000202C0000007009000879
:1011C000FC1100082C0000202C04000080090008FD
:1011D000006CDC02000000000000000001020304BB
:1011E00006070809000000000000000001020304D7
:0C11F000010203040607080900000000CB
:04000005080000B53A
:00000001FF
